:020000040800F2
:10000000000800208D05000841870008418700088E
:10001000A99000084187000841870008418700082F
:100020004187000841870008418700084187000890
:100030004187000841870008418700084187000880
:100040004187000841870008418700084187000870
:100050004187000841870008418700084187000860
:100060004187000841870008418700084187000850
:1000700041870008810400087104000841870008D6
:100080004187000841870008418700084187000830
:100090004187000841870008210C000841870008BB
:1000A0004187000841870008418700084187000810
:1000B00041870008418700088D540008FD5E000854
:1000C000C7920008C3920008C9560008D3920008DE
:1000D000CB920008D55E0008CF920008615F00084F
:1000E0009D5F00084187000841870008418700089C
:1000F00041870008418700084187000841870008C0
:1001000041870008418700084187000841870008AF
:10011000418700084187000841870008418700089F
:10012000418700084187000841870008418700088F
:10013000418700084187000841870008418700087F
:10014000418700084187000841870008418700086F
:100150004187000841870008418700082580000882
:1001600041870008418700080F970008159700088D
:100170000348044B834202D0034B03B11847704736
:10018000F8080020F808002000000000064B07498E
:10019000C91A891048BF0131491003D0044B0BB173
:1001A00001481847704700BFF8080020F8080020F1
:1001B0000000000010B5064C237843B9FFF7D8FFC4
:1001C000044B13B10448AFF300800123237010BD2A
:1001D000041100200000000020F9000808B5054BBC
:1001E0001BB105490548AFF30080BDE80840FFF7A3
:1001F000CDBF00BF00000000280B002020F9000840
:10020000A3F5803A704700BF174B002B08BF134B74
:100210009D46FFF7F5FF00218B460F461348144A11
:10022000121A09F0ECFA0E4B002B00D098470D4B38
:10023000002B00D098470020002104000D000D483D
:10024000002802D00C48AFF3008008F05FF92000CE
:10025000290000F013F808F047F900BF000008007B
:10026000000000000000000000080020F808002046
:1002700028110020000000000000000008B508F070
:1002800017FF08F067F9044B186008F01DFF024BD8
:10029000186808F064F9F8E7400B002008B501F091
:1002A000BFF808F0A1FC264A136F23F0070343F0C0
:1002B0000303136701F014FA224B9B6A13F0807F4B
:1002C00003D1214B4FF480329A621D4BD3F8202189
:1002D00022F0070242F00202C3F82021D3F82821BD
:1002E00022F0070242F00202C3F82821D3F840218D
:1002F00022F0030242F00102C3F84021D3F860214A
:1003000022F0030242F00102C3F86021D3F8402238
:1003100022F0030242F00102C3F84022D3F8002287
:1003200022F0070242F00102C3F80022D3F80822AB
:1003300022F0070242F00102C3F80822002008BDA3
:10034000008000500040005A0060005A10B4194B61
:100350005A6E02F4803203F580514FF480304866C3
:10036000586E4FF000434B66134B596C01F001017E
:100370004AF6CD341C64104B5B6B13F0010FFAD1BD
:100380000E4B01245C600C4B1B6B13F0010FFAD079
:1003900011B1094B0A491964002803DB094B4FF0DE
:1003A000004159661AB9074B4FF480325A665DF81E
:1003B000044B704700800050004009500060095015
:1003C0003254FFFF00A0005030B59FB0234C0DF118
:1003D000580CA646BEE80F00ACE80F009EE80F00E0
:1003E0008CE80F00302200210AA809F008FA1C4B03
:1003F0000A9301258DF82D5057230C930D95022358
:100400008DF838300F938DF840300323119308AAEC
:10041000203494E8030082E803000DF1080C002367
:100420000293039304930593069307938CE80300C8
:100430000D238DF810300E238DF81130094B0593E4
:10044000202306938DF81D50074B00930AAB16AA84
:100450006146064802F0AAF81FB030BD0C9E0008A5
:1004600000000A50440B0020640B0020C80B002041
:1004700008B5024808F0B3FC08BD00BFC80B002057
:1004800008B5024808F0ABFC08BD00BFC80B00204F
:1004900010B58AB000230693079308930993254B60
:1004A0000693254906A805F0EFFD244B186030B1EE
:1004B0000023059305A908F0F8FF08B1FEE7FEE761
:1004C0001E4C1F4A1F4B1968206805F0FDFF0021D4
:1004D000206808F010FC00B1FEE71B49174B1868B4
:1004E00006F01EF800B1FEE74FF0FF3240F2FF3396
:1004F000CDE900234FF0FF324FF0FF330F4908687A
:1005000008F075FF00B1FEE7104B1B88ADF8103006
:10051000ADF80C3004A9094B186808F050FF00B181
:10052000FEE703A9054B186808F05FFF00B1FEE77E
:100530000AB010BD3187000813870008100800209A
:100540001D8700080008002007001100349E0008E5
:1005500082B0054B019302AB03EB800050F8043CE2
:10056000186802B0704700BF1008002008B50448A2
:10057000044A121A9210044908F0E3F808BD00BFBB
:100580002CFA00082CFA00082811002008B500F009
:100590002FF8FFF7EBFF124A0AE01068516850F895
:1005A000230041F82300013391688B42F5D30C32CC
:1005B0000C4B9A4201D20023F6E70B4A08E011687F
:1005C000002041F82300013351688B42F7D30832F1
:1005D000064B9A4201D20023F6E7FFF715FE00BF53
:1005E00028F9000834F9000834F9000834F9000843
:1005F00010B4144B144A9A60D3F8882042F4700265
:10060000C3F88820114A4FF480419166104901F5E2
:1006100000524FF0FF3010660E4850660220C3F8BB
:10062000D000BFF34F8FBFF36F8F0B480124C0F88A
:1006300080414FF44033D36004600B615DF8044B9C
:10064000704700BF00ED00E000000008009000507F
:10065000008000447FFF7F0100E100E0014B18684B
:10066000704700BF1808002008B5094B1B6F03F046
:100670000703022B04D0032B05D0012B06D0FEE785
:10068000FFF7ECFF03E0034B186800E0024808BDE9
:100690000080005020080020002D310108B5FFF730
:1006A000E3FF054B1B6FC3F303330133B0FBF3F0E0
:1006B000024B186008BD00BF0080005014080020E5
:1006C0000048704700B4C404014B1868704700BF6D
:1006D0002008002008B5064B1860064B1B6F03F07E
:1006E0000703032B00D008BDFFF7D8FFFBE700BFCF
:1006F000200800200080005000487047002D310184
:100700004FF0B4439868C0F304400C2808D8DFE8E1
:1007100000F009070707070722181A071C1E200008
:10072000002070474FF0B4439B6803F04073B3F16F
:10073000807F12D0B3F1007F11D003B17047094818
:100740007047094870470948704709487047094889
:100750007047094870470948704709487047094879
:10076000ECE700BF00093D000024F400C0EA2101CD
:1007700080BA8C010048E801005A6202405DC60060
:1007800080841E0040420F00014B1868704700BF74
:100790001C080020F0B585B00C4694469DF8341036
:1007A000664A1278002A00F0BD800546BCF1070FAA
:1007B00000F2BA800A9A002A00F0B8800B9A002A48
:1007C00000F0B6800E9AB2F5006F00F3B3800128F6
:1007D0005BD05B4A02EB0C12127B002A00F0AC806B
:1007E00000220092019202920392564A02EB4C1EA2
:1007F000002C4FD14FEA4C1600209051CEF8040047
:10080000CEF80800CEF80C009EF8020040F0100070
:100810008EF802009EF8030040F030008EF80300CE
:1008200021B9C1B241F003018EF8031000930E9B71
:10083000013B444A4FEA4C1002EB4C11165A63F349
:100840000E1616520A9B8B600B9B4B60CB789DF863
:100850003C2062F38303CB70012D36D0109B002B1C
:1008600056D0374A4FEA0C1102EB0C131098505037
:10087000119A5A6000249C605D7372466946604616
:1008800001F02AFB204605B0F0BD0C9A002AA0D149
:100890002D48F8E72B4F4FEA4C1607EB4C1200207F
:1008A000B85150609060D060907840F01000907027
:1008B000D07840F00300D0700029B7D107EB4C127C
:1008C000C1B241F03001D170B0E70E460A7B42F070
:1008D00001020A73D2B242F002020A73CA6804210A
:1008E00061F39F02F26006F1100796E80F0087E8B7
:1008F0000F00F2696FF0030161F39F02F2610C9B3C
:100900007361012CAAD10B9AB2610C9A7260A5E7AF
:10091000002DA6D10B4B03EB4C139A786FF3041206
:100920009A709EE70948AEE70748ACE70648AAE791
:100930000548A8E70448A6E70548A4E705110020F4
:10094000E00C0020E00B0020018000F0028000F0AD
:10095000078000F0134B1B78FBB110B50446F0B1D3
:1009600008F055F90023072B13D80F4A02EB0312A6
:10097000127B0AB10133F6E723600B4A190102EB3F
:10098000031301241C730024545008F046F9204638
:1009900002E008F042F9054810BD054870470548D7
:1009A000FAE700BF05110020E00C0020048000F0F1
:1009B000028000F0018000F038B508F028F9044604
:1009C0000023072B06DC0C4A02EB0312127B12B940
:1009D0000133F6E7002222B1204608F01EF907484D
:1009E00038BD01F01BFA0025054B1D70204608F0AC
:1009F00014F92846F4E700BFE00C0020058000F061
:100A0000051100200F4B1B78BBB110B50446072819
:100A100015D808F0FCF80C4B03EB04131B7B1BB937
:100A200008F0FBF809480BE0074B03EB0413002424
:100A30001C7308F0F2F8204602E0054870470548AC
:100A400010BD00BF05110020E00C0020068000F062
:100A5000028000F0018000F000B583B0134B1B68EA
:100A6000019300238DF8043008F0D1F8104B1B7867
:100A700033B90F4B01221A7008F0CFF8002309E0B8
:100A800008F0CBF80B480EE00B4A02EB03120021F2
:100A900011730133072BF7DD08238DF8073001A808
:100AA00001F0E8F9002003B05DF804FB389E00086F
:100AB00005110020038000F0E00C002008B50A4B6F
:100AC0001B785BB107280BD8084B03EB00131B7B8B
:100AD00043B1002101F0C0F9002008BD0448FCE743
:100AE0000448FAE70448F8E705110020E00C00206C
:100AF000028000F0018000F0078000F008B50A4B8A
:100B00001B785BB107280BD8084B03EB00131B7B4A
:100B100043B1012101F0A0F9002008BD0448FCE721
:100B20000448FAE70448F8E705110020E00C00202B
:100B3000028000F0018000F0078000F008B50A4B49
:100B40001B7853B107280AD8084B03EB00131B7B13
:100B50003BB101F00BFA002008BD0548FCE7054851
:100B6000FAE70548F8E700BF05110020E00C002077
:100B7000028000F0018000F0078000F0104B1B782D
:100B8000ABB1072815D8B1B10E4B03EB00131B7B9B
:100B90009BB10D4B1B6D0122824013EA020003D072
:100BA00001230B700020704700230B70704707482B
:100BB000704707487047064870470648704700BFAF
:100BC00005110020E00C002000000450028000F01D
:100BD000018000F0078000F00C4B1B7873B110B55A
:100BE0000C4607280CD869B1094B03EB00131B7B9B
:100BF00053B101F0CDF92070002010BD05487047B9
:100C00000548FAE70448F8E70448F6E7051100202C
:100C1000E00C0020028000F0018000F0078000F06E
:100C2000F8B5194B1F6D5B6D1F4002D401250024E0
:100C300002E0FEE701346D00072C24D83D42F9D0D4
:100C4000124B1D652301124AD358002BF2D002EB40
:100C50000416B1680131B16072682046984780F08F
:100C60000100C0B2737B012BE4D10028E2D0094B14
:100C700003EB44131A7B6FF341021A731A7F6FF36D
:100C800041021A77D6E7F8BD000004500020045056
:100C9000E00C0020E00B0020024B4FF480321A677A
:100CA000704700BF0090005038B505460C46174B02
:100CB000D3F8200100F00700062823D8DFE800F071
:100CC000040A0E16121A1E00012305B1286004B191
:100CD000236038BDFFF7C2FC0523F6E7FFF7F4FCFD
:100CE0000323F2E7FFF70CFD0723EEE7FFF704FD10
:100CF0000223EAE7FFF7B2FC0623E6E7FFF7E4FC8E
:100D00000423E2E700231846DFE700BF008000501D
:100D100038B505460C46164BD3F8283103F00703C7
:100D2000013B052B20D8DFE803F003131B0F0B1743
:100D3000FFF794FC052305B1286004B1236038BD9A
:100D4000FFF78CFC0623F6E7FFF7DAFC0723F2E750
:100D5000FFF7BAFC0323EEE7FFF7B6FC0423EAE74C
:100D6000FFF7CAFC0223E6E700231846E3E700BFCB
:100D70000080005070B582B006460D4600230193F6
:100D8000104BD3F8804104F00304022C16D0032C3E
:100D90000FD0012C07D000240EB1019B336005B1A8
:100DA0002C6002B070BD002101A8FFF77DFF0F2469
:100DB000F2E7FFF7A5FC01900724EDE7FFF79CFCA5
:100DC0000190E9E70080005038B505460C460C4B11
:100DD000D3F8903203F00303012B05D0022B07D187
:100DE000FFF78EFC072305E0FFF786FC022301E0F6
:100DF0000023184605B1286004B1236038BD00BF48
:100E00000080005030B583B005460C4600230193A6
:100E1000154BD3F8203203F00703042B21D8DFE869
:100E200003F0030B11161B0001230DB1019A2A6078
:100E300004B1236003B030BD002101A8FFF768FFB3
:100E40001123F2E7FFF75CFC01900723EDE707F0C1
:100E500086FC01900A23E8E7FFF796FC019009233E
:100E6000E3E70023E1E700BF0080005038B5054606
:100E70000C46104BD3F8400100F00300032815D8AE
:100E8000DFE800F002080C10012305B1286004B16E
:100E9000236038BD07F063FC0A23F6E7FFF774FC14
:100EA0000923F2E707F05EFC0B23EEE70023184668
:100EB000EBE700BF0080005030B583B005460C461C
:100EC00000230193144BD3F8603203F00703013B76
:100ED000032B1FD8DFE803F0020E1914002101A82C
:100EE000FFF7E2FE0F230DB1019A2A6004B12360DF
:100EF00003B030BD002101A8FFF7B8FF1023F2E7CF
:100F0000FFF7FEFB01900723EDE7FFF7F5FB0190EC
:100F10000223E8E70023E6E70080005030B583B005
:100F200005460C46002301930C4BD3F8703203F0B6
:100F30000303012B09D0022B0DD114230DB1019A0B
:100F40002A6004B1236003B030BD002101A8FFF77F
:100F50008DFF1023F2E70023F0E700BF0080005070
:100F600038B505460C46134BD3F8000200F00700D5
:100F700004281BD8DFE800F003090D111500012338
:100F800005B1286004B1236038BD07F0E8FB0A23EF
:100F9000F6E7FFF7F9FB0923F2E707F0E3FB0B2382
:100FA000EEE7FFF77BFB800A0E23E9E700231846F4
:100FB000E6E700BF0080005038B505460C46134BED
:100FC000D3F8080200F0070004281BD8DFE800F07F
:100FD00003090D111500012305B1286004B1236038
:100FE00038BD07F0BCFB0A23F6E7FFF7CDFB09236A
:100FF000F2E707F0B7FB0B23EEE7FFF74FFB800AA2
:101000000E23E9E700231846E6E700BF0080005002
:1010100038B505460C46104BD3F8400200F00300EB
:10102000032815D8DFE800F002080C10012305B1F1
:10103000286004B1236038BD07F091FB0A23F6E76E
:10104000FFF7A2FB0923F2E707F08CFB0B23EEE787
:1010500000231846EBE700BF0080005038B5054676
:101060000C460F4BD3F8503203F00303022B12D07F
:10107000032B08D0012B0AD00023184605B12860A5
:1010800004B1236038BD07F06DFB0B23F6E707F0D2
:1010900066FB0A23F2E7FFF777FB0923EEE700BFC1
:1010A0000080005038B505460C46104BD3F860015F
:1010B00000F00300032815D8DFE800F002080C1048
:1010C000012305B1286004B1236038BD07F047FB58
:1010D0000A23F6E7FFF758FB0923F2E707F042FB84
:1010E0000B23EEE700231846EBE700BF008000501B
:1010F00038B505460C46104BD3F8000100F003004C
:10110000032815D8DFE800F002080C10012305B110
:10111000286004B1236038BDFFF7D6FA0323F6E751
:10112000FFF732FB0923F2E707F017FB0823EEE78E
:1011300000231846EBE700BF00800050B0F5207F89
:1011400020D00ED8B0F5007F16D020D810B1B0F561
:10115000C07F04D10F4B186FC0F3033018E000209C
:1011600016E0B0F5607F05D10A4BD3F88000C0F3DC
:1011700001100DE000200BE0064BD3F89000C0F307
:10118000046005E0034B186FC0F3802000E00020EE
:10119000013070470080005038B505460C46174BAB
:1011A0004FF480329A660020FFF7C8FF05FB00F07D
:1011B000134BDA6902F4803241F67131D9635B680E
:1011C00023F440136CB90F49884207D800210B4320
:1011D0000B494B600AB10022CA6338BD4FF480113D
:1011E000F5E7002C07DD0849884201D80021EEE729
:1011F0004FF48011EBE74FF44011E8E70090005006
:1012000000000350005A6202002D3101430905D04D
:10121000012B0DD0022B0DD0002200E0002200F0A7
:101220001F0049B102F580520123834013607047CB
:10123000034AF4E7034AF2E702F50052F4E700BF7D
:10124000648000506880005008B5802007F0E6FAFE
:10125000034B984203D8034B4FF480321A6708BD02
:10126000005A620200A0005000B583B00023019331
:10127000B0F5807F00F0AF8011D9B0F5086F00F0B5
:10128000B48044D9B0F5286F00F0C38069D9B0F5B7
:10129000306F79D101A90020FFF796FD75E0802815
:1012A00073D8242871D324385C286ED8DFE800F086
:1012B0004C4C4C4C4C6D446D98546D6D6D6D6D6D1A
:1012C0006D6D6D6D6D986D6D6D39A76D6D6D6D6D1D
:1012D0006D6D6D6D6D6D6D6DAC4C6D6D6D676D6D26
:1012E0005FB1A277776D6D6D6D6D6D6D6D6D6D6DAF
:1012F0006D6D6D6D6D6D6D6D6D6D6D6D6D6D6D6D1E
:101300006D6D6D6D6D6D6D6D6D6D6D6D7C00B0F5A0
:10131000C06F65D00AD9B0F5E06F70D0B0F5F06F4E
:1013200017D101A90020FFF7BDFE2EE0B0F5A06F98
:1013300060D0B0F5B06F04D101A90020FFF71AFD0D
:1013400023E0B0F5806F20D101A90020FFF7ACFCAD
:101350001BE0B0F5D06F18D101A90020FFF700FE07
:1013600013E0B0F5186F4FD0B0F5206F04D101A98C
:101370000020FFF7A1FD08E0B0F5106F05D101A92D
:101380000020FFF719FE00E003D2019803B05DF8DA
:1013900004FBB0F5386F23D0B0F5406FF5D101A94B
:1013A0000020FFF7B5FCF0E71C4B1B6F03F00703B1
:1013B000013B032BE9D8DFE803F00B020508052306
:1013C0000193E2E703230193DFE708230193DCE7BE
:1013D00002230193D9E701A9002007F0ECF9D4E733
:1013E00001A90020FFF742FDCFE701A90020FFF788
:1013F0007FFECAE701A90020FFF704FDC5E701A9A8
:101400000020FFF705FEC0E701A90020FFF726FE38
:10141000BBE701A90020FFF781FDB6E7008000507F
:10142000044B4FF480125A66034B4FF480329A6299
:10143000704700BF009000500050005A38B5044675
:101440008020FFF711FF032800F0B580604B4FF4B8
:1014500080125A665F4B45F60E02C3F8802003F5F2
:1014600080524FF0A061916203F500534FF4803237
:101470009A62584B9B6D13F4803FFAD1554B9B6D8C
:1014800013F0804FFAD1226863681B0543EA0263B8
:10149000227B43EA0243627B43EA0233A27B43EAB4
:1014A0008213E27B13434B4D2B61AB6903F0004386
:1014B000226943EA8263626943EA0263227E43EA65
:1014C0000243627E43EA0223A27E1343AB614FF4E0
:1014D00000624FF44061404807F08BF92B6A23F01B
:1014E0000F03E269002A46D111460B43E17E43EA2D
:1014F00081031A43374B1A62E369002B3DD1354A09
:10150000916A364B0B4094F8201043EA411394F84B
:10151000211043EA011394F8241043EAC10343F471
:10152000803393622B4B9A6D2D4B9343FAD1294A0A
:1015300002F580514FF080738B62136923F47003BE
:10154000A06843EA005313614FF000438B6194F8A5
:1015500022301BB9234B4FF080729A6294F82330EB
:1015600013BB204B4FF480329A621A4B9B6D13F0E1
:10157000804FFAD118E00821B7E7022B1CD0154A9A
:10158000916A164B0B4094F8201043EA411394F8EB
:10159000221043EA016394F8241043EAC10394F84B
:1015A000231043EA0143936294F825301BB1094BA1
:1015B0000D4AC3F8802038BD064B00221A619A619B
:1015C0004FF408524FF47F41084807F012F9D6E76C
:1015D000009000500040005A3840005AC7FFFEFEFD
:1015E000030001000060005AF1A7FFFF3440005AD9
:1015F000014B93F900007047E8080020014B188068
:10160000704700BFDC080020B0F5207F48D02DD8FF
:10161000B0F5007F39D04CD810B1B0F5C07F24D1DF
:1016200010B54C1E07F0F3F807F0D7FAFFF734FBBC
:10163000204A136F23F4704343EA04331367FFF720
:101640002DF81D4BD3F8843013F0100FF9D11A4B3D
:10165000D3F88410C1F38111C1F1020107F0B2FA8D
:1016600000F02CF8FFF7F0FD10BD7047B0F5607F7B
:101670000AD101390F4AD2F8803023F0300343EA0F
:101680000113C2F88030704770470139094AD2F817
:10169000903023F0F85343EA0163C2F8903070476A
:1016A0000139044A136F23F4806343EA81231367EB
:1016B00070477047008000500040005008B54FF45C
:1016C000C07007F0ABF8054B984205D902214FF4E2
:1016D0002070FFF799FF08BD0121F8E780F0FA02BA
:1016E00008B5FEF7DBFF0C4BD3F8843013F0100F76
:1016F000F9D1094BD3F88410C1F38111C1F1020172
:1017000007F060FA0121002000F058F8FFF7D6FF3B
:10171000FFF79AFD08BD00BF00400050034AD36E9A
:1017200023F0300301790B43D3667047004000502B
:10173000F8B50446204BD3F8843013F0100FF9D1DC
:101740001D4BD3F88430C3F381139C422DD0FEF798
:101750008BFF0646012C11D007F052FA0546164FB2
:1017600007F500534FF000725A66204607F058FA0A
:10177000621E4FF4806393403B6706E0012107F04F
:1017800021FAE9E70C4BD3F884300B4B5B6E13F076
:10179000007F05D1084BD3F8843013F0200FF1D02F
:1017A000284607F031FA022C00D0F8BD002130465F
:1017B00007F008FAF9E700BF0040005010B50C46EA
:1017C000034650B1094A127812B1094A934208D926
:1017D00021460220FFF7ACFF10BDFEF745FF034690
:1017E000F0E721460120FFF7A3FFF5E7600D002099
:1017F000005A620238B52F4B4FF000425A6603F58B
:101800000B235C6C04F001044AF6CD321A64E8B98B
:10181000294B5B6B13F00103FAD1274A556815F089
:10182000010539D002F50052012151601A462249C2
:10183000096B11F0010F04D120498A4201D801320D
:10184000F5E71E498A422FD81D4625E000231A4A93
:10185000126B12F0080F04D0184A934201D80133DA
:10186000F5E7164A934221D8134B03F50052202185
:10187000916203F5805301225A60002300E0013396
:101880000D4A926A12F0200F02D10C4A9342F6D907
:101890000A4A93420CD8002514B1074B084A1A642F
:1018A00007F0A7FD284638BD0725F5E70725F3E72C
:1018B0000725F1E700900050004009503F420F001B
:1018C0003254FFFF10B51A4B4FF000425A6603F531
:1018D0000B235C6C04F001044AF6CD321A644378A1
:1018E0005B0043F00103134AD363134B5B6B13F0AC
:1018F0000B0FFAD1104A536823F4F873817843EA46
:1019000001135360C178437943EA0123936001795D
:10191000837943EA012313610078FFF76BFF14B169
:10192000054B064A1A6407F064FD012010BD00BF94
:101930000090005000400050004009503254FFFF1A
:1019400010B50F2800D90F20124B5C6E03F58053A1
:101950004FF000425A6603F50B235A6C02F0010265
:101960004AF6CD3119640C4B5B6B13F0800FFAD142
:1019700009490B6A23F00F0303430B620AB1074ABC
:101980000A64002C03DB064B4FF000425A6607F056
:1019900030FD10BD00800050004009503254FFFF60
:1019A00000A0005010B5134B5C6E03F580534FF050
:1019B00000425A6603F50B235A6C02F001024AF604
:1019C000CD3119640C4B5B6B13F0800FFAD10A49CF
:1019D0000B6A23F4F85343EA00230B620AB1074A67
:1019E0000A64002C03DB064B4FF000425A6607F0F6
:1019F00000FD10BD00800050004009503254FFFF30
:101A000000A00050084B98420AD0084B984209D0D9
:101A100003F58043984201D000207047582070475A
:101A200056207047572070470000015B00000A50A5
:101A300010B5044607F0F5F8042307E004F58053D9
:101A400004221A6104F500531A610B46591E002B3B
:101A5000F4D1202323610023E360A36041F202025A
:101A60006261A3614FF4A0226262E3612362A36218
:101A7000E3626363236504F500520249D164236382
:101A800010BD00BFFF3F0D03F8B5044615460846DC
:101A9000E1B1A36813F0010F34D06668B0FBF5F034
:101AA000451E16F001062BD0636D13F0280FFBD1F5
:101AB000A36C13F0030F0FD1A36C13F0010F1BD114
:101AC000A36C13F0020F19D1002706E02046FFF7A0
:101AD00099FF06F0A3FEDCE70527204607F0A1F8F2
:101AE000236923F07F4343EA0563236146B3394604
:101AF000204607F0B5F823E00927EEE70627ECE7D4
:101B00000027EDE76368A36803F0E003402B1DD0D6
:101B100017D9602B1ED0802B12D10123400105FB69
:101B200003F3B0FBF3F020380B4A02EAC002636D06
:101B300013F0010FFBD12263636D13F0010FFBD192
:101B4000F8BD2BB1202BFBD10823E7E70623E5E7FF
:101B50001023E3E70423E1E7F8FF7F0070B50446B4
:101B60000D461646436823B1636DC3F30B03002B88
:101B7000FAD12046FFF75CFF636923F44C5323F04E
:101B80000F036A7B1343EA8913432A8A1343636171
:101B9000A36823F0804323F0E2032A7B13432A7EC9
:101BA00013436A691343A360AB681BB9A36843F08E
:101BB0000043A360EA69002A70D0A168694B0B401A
:101BC000117A43EA8153917A43EA4143918801F4BF
:101BD000C0410B43517843EA8103517B43EAC1037F
:101BE000917B43EA0113927843EA8223A360E2687F
:101BF0005D4B1340EA6911690B4351690B439179BD
:101C000043EA8123D27943EA4223E360EB691B78FC
:101C1000012B01D0032B03D1E36843F00403E360FD
:101C2000EB691B78023BDBB2012B51D94F4B9C4235
:101C30006BD04F4B9C426AD003F580439C4262D0EC
:101C40004FF0FF3303F593735B0103F1A04303F5FA
:101C5000703302225A60EB695A7A04F580539A6213
:101C6000EB695B7A1BB1E36843F40063E360EB6903
:101C7000DB7A63B1E36843F40043E3603B4B9C428F
:101C800047D03B4B9C424BD03A4B9C424FD0636A6F
:101C900023F00303EA69D27B134363623EB196F8F3
:101CA0002030002B4AD004F5805301221A6205210E
:101CB000204606F0D5FFAA68002A4ED12978204692
:101CC00006F0CEFFA36CDB4313F4405FFAD170BD86
:101CD000264B9C4213D0264B9C4212D003F58043E6
:101CE0009C420AD04FF0FF33A6335B0103F1A043BF
:101CF00003F5703302225A60ADE70223F4E70023B4
:101D0000F2E70123F0E702239CE700239AE701238F
:101D100098E7EB691B7B03F00F03174A5366B0E7A4
:101D2000EB691B7B03F00F03134A1367ACE7EB6906
:101D30001B7B03F00F03104AD367A8E7E36923F086
:101D4000090396F82220134396F82120134343F009
:101D5000010304F58052D361A9E769682046FFF7C3
:101D600093FEABE7E39BBDFFFFF9F0870000015B4B
:101D700000000A5000400A5000900350F8B5044695
:101D80000D461E4617463AB1FBB101228A4000EBD0
:101D9000400109011D4B5A50072D1ED8A90004EB24
:101DA00044031B0107FA01F20F2000FA01F1184861
:101DB000184406F08CFF3FB9FEB10122AA4004EBA3
:101DC00044042401114B1A51F8BD01228A4000EB52
:101DD000400109010F4B5A50DEE7A5F108039B00B3
:101DE00004EB440C4FEA0C1C07FA03F20F21994054
:101DF0000948604406F06BFFDDE70122AA4004EBCE
:101E000044042401034B1A51DEE700BF40D00350C5
:101E100034C0035040E003503CC0035010B50C4B9D
:101E20004FF48002C3F88020BFF34F8FBFF36F8F52
:101E3000084B00245C65FF229A625C6021462020EA
:101E4000FFF7E4F921462120FFF7E0F910BD00BFBC
:101E500000E100E00000045029B9044A012303FA1C
:101E600000F010607047024AF8E700BF40100450CD
:101E70004020045010B5044601212020FFF7C6F988
:101E800001212120FFF7C2F9114B01225A6022786B
:101E900012069A606178A27842EA01429A61FF22B2
:101EA0009A6200229A631A644FF000425A6503F561
:101EB00000534FF0FF321A65064A4FF48001C2F812
:101EC0008011E3781B01DBB282F81633116010BD7C
:101ED0000000045000E100E070B50C46C3B20125DB
:101EE0009D40204E06F500531D650968830003F1EF
:101EF000A04303F588235960637B00EB400106EBA8
:101F000001110B6694F80AC0E37A1B0543EA0C43FF
:101F100094F80CC043EA4C53CB6522F003020A67E5
:101F200006F075FE736D2B437365237A0BB10E4B70
:101F30001D64637A0BB10C4B9D632379A27942EA4D
:101F40000342084B03F500518A616679E27942EA5F
:101F5000064203F58054A2614D639D6406F05DFE68
:101F600070BD00BF000004500010045010B5C0B296
:101F70000124844006F04BFE044B5A6D22EA040211
:101F80005A659C6206F049FE10BD00BF0000045077
:101F900010B5C0B20124844006F039FE084BDB6A5C
:101FA000234205D1064B5B6B9C4306D0002400E026
:101FB000002406F032FE204610BD0124F9E700BFE0
:101FC00000000450074B4FF480325A6603F5E623B5
:101FD0009B69C3F38512827003F03F0242701B0BB2
:101FE000037070470090005038B5044607F014FAAB
:101FF000064DA446BCE80F000FC5BCE80F000FC596
:102000009CE8030085E80300002038BD640D002033
:1020100047F6FF739A427DD009297DD870B5414BB0
:1020200013F801E0BEF1030F78D83F4B03EBCE016C
:1020300091F802C0604613F83E30012B26D03A4B8F
:1020400003EBCE035C68002C6AD0B4F900309342F5
:1020500004DBB4F90230934200DC1346A288FF2A65
:102060002CD000212826C8221D46D21A92FBF6F257
:102070000A4412B22C4B03EBCE0393F801E09645D1
:1020800001DD002A2FDA0EF1FF322CE0CB78A3EB32
:102090000C0300249C420ED2191BA3EB51012248D1
:1020A00000EBCE00406830F91100904201DC0C4694
:1020B000F0E74B1EEEE76344D8B230E0B4F90620F7
:1020C000B4F908600121CFE75C331849A1FB031381
:1020D0009B09013212B2164696450FDD04EBC20190
:1020E000898899420AD304EBC2018B68B1F90610C2
:1020F00001FB0533002BE7DA0023E5E7013E04EBA3
:10210000C604A2889A4200D31A46624500D31046FC
:10211000C0B204E0FF20704700207047002070BD6F
:102120000020FCE73C9E0008640D0020D34D6210A7
:1021300009296FD83A4B5B5C032B6DD8394911F8EC
:10214000331001292AD010B4364901EBC3014C6881
:10215000002C63D0201D334901EBC30189789142E3
:1021600034D2304901EBC301C978914233D92D49AA
:1021700001EBC30393F801C00CF1FF3C5FFA8CFC48
:10218000A388FF2B2AD00023634529D2591C30F89D
:102190003110914224D30133DBB2F5E7214901EB41
:1021A000C301C978914200D20A461E4800EBC30021
:1021B0008078121AD2B2091A8A4200DD0022194927
:1021C00001EBC3035B6833F912007047B4F90200F6
:1021D0005DF8044B7047B4F90000F9E70123D3E739
:1021E0004FF47A7101FB02F200EBC3004368D31A8B
:1021F000B0F9022002EBD27103EB610393FBF2F31F
:10220000B4F900009842E3DBB4F902009842DFDC45
:1022100018B2DDE704487047034870470248D7E723
:102220003C9E0008640D00200080FFFF08B50348B5
:10223000FFF7DAFE012007F012F908BD489E0008FA
:1022400030B583B0044607F00CF908B103B030BDD7
:102250006946204607F0E2F800B1FEE79DF800303D
:10226000124A12789342F1D00E2B06D164250F4901
:10227000204607F0C0F828B1FEE7204604F03AF9FE
:102280000546F4E72946204607F0CAF800B1FEE704
:10229000064B1B780A2BD9D16946204607F0BEF8B9
:1022A0009DF80020014B1A70D0E700BF24080020E1
:1022B00070B58AB004460D4628220021684607F012
:1022C0009EFA032300934FF41653ADF80630022212
:1022D0008DF8082001238DF809308DF80A208DF83B
:1022E0000B30642303934FF47A73069369462046B8
:1022F00004F050F90646C0B90C3D102D7CD8DFE83B
:1023000005F0091B21272D33393F454B51575D639C
:10231000696F75003949204607F0D5F806462EB991
:10232000FF21204607F008F9064616B1204607F0BF
:10233000E3F830460AB070BD3149204607F0C3F8D3
:102340000646ECE72F49204607F0BDF80646E6E7CB
:102350002D49204607F0B7F80646E0E72B4920460E
:1023600007F0B1F80646DAE72949204607F0ABF84E
:102370000646D4E72749204607F0A5F80646CEE7EB
:102380002549204607F09FF80646C8E7234920461E
:1023900007F099F80646C2E72149204607F093F86E
:1023A0000646BCE71F49204607F08DF80646B6E70B
:1023B0001D49204607F087F80646B0E71B4920462E
:1023C00007F081F80646AAE71949204607F07BF88E
:1023D0000646A4E71749204607F075F806469EE72B
:1023E0001549204607F06FF8064698E7134920463E
:1023F00007F069F8064692E7012697E790A10008E2
:1024000090A00008D0A1000870A1000830A1000829
:10241000D0A0000810A10008B0A0000850A100083A
:10242000F0A00008B0A1000870A0000850A00008AB
:1024300030A0000810A00008F09F0008D09F0008FE
:1024400000B587B00023019302930393049305938F
:10245000044B029301A94FF0FF3007F02AF807B0B0
:102460005DF804FB006A180000B583B0094B93E8DF
:1024700003000090ADF80410090C8DF806106846B2
:10248000FFF720FA0920FFF75BFA002003B05DF8A0
:1024900004FB00BFA09F000810B582B0074A536F2D
:1024A00043F001035367002400948DF8044068460C
:1024B000FFF734F9204602B010BD00BF00400050C5
:1024C00010B58AB0EC461B4C0FCCACE80F000FCC1B
:1024D000ACE80F0094E803008CE80300164BD3F837
:1024E0004C3113F4002F07D0144B1C884FF6FF73A8
:1024F0009C4205D18C2403E00F4BD3F85041E4B249
:102500008DF81940FFF774F8241803D4FF2C02DD6E
:10251000FF2400E000248DF818400948FEF7DAF89F
:102520006846FEF78BFF3220FFF768F800200AB0FC
:1025300010BD00BFA89F00080080E00F0001E00F61
:10254000C01753026FF0040307E003F00F010A4ABB
:102550000A445021117601335BB24B2B09DC002B6E
:10256000F3DB03F1604202F56142502182F800136F
:10257000F1E70020704700BFFCEC00E010B5044616
:1025800006F03EFB024B1C6006F03EFB002010BD37
:102590008C0D002010B506F033FB034B1C6806F0D1
:1025A00033FB204610BD00BF8C0D0020F0B58DB070
:1025B00016461C46129D0023069307930893099321
:1025C0000A930B9323790BB18DF8183001238DF802
:1025D0001E3006ABF361637993B101230493039337
:1025E0007A4B02937A4B019300230093794B0A466E
:1025F000294600F0D3F9074620B138460DB0F0BDAA
:102600000223EBE7A368EB63E369EB64237E85F8C1
:10261000483063696B64237C85F84030636A6B657E
:1026200094F8203085F85030E36AEB6594F8283050
:1026300085F858302368AB6301213A20FEF7E6FDA8
:10264000012304226169207CFFF798FB0123022209
:10265000E169207EFFF792FB0023337085F860303C
:102660000121A068FEF7D2FD6379002B41D05A4AC0
:10267000D2F8283123F0070343F00103C2F82831D0
:10268000A368562B02D0B3F5A06F08D1524AD2F8F6
:10269000203223F0070343F00103C2F82032314611
:1026A000206806F008FB95F8603043F0040385F8D5
:1026B0006030E268494B263203EB42121021516030
:1026C000217C6069E26841EA004103EB4212C2F8F2
:1026D000DC14227EE069E16842EA004203EB411328
:1026E000C3F8D4242379032B6ED8DFE803F0511A02
:1026F000414901213620FEF789FDA368562B02D0FF
:10270000B3F5A06F08D1344AD2F8203223F0070382
:1027100043F00303C2F820323146206806F0D1FAB4
:10272000C7E795F8603043F0010385F86030002674
:1027300000230222616A94F82000FFF71FFB94F83F
:102740002020616AE36842EA01425B0103F1A04391
:1027500003F5703341F2CC415A50DEB9AB6B03F54F
:10276000805304221A650521206806F079FA44E7AF
:1027700095F8603043F0020385F860300126ECE7FD
:1027800095F8603043F0030385F860300126CFE709
:102790000026E2E700230422E16A94F82800FFF70C
:1027A000EDFAE3680D4AA63302EB431302215960A8
:1027B00094F82830E06AE16843EA004302EB4112F2
:1027C00041F2D0415350C9E7232716E7238D000873
:1027D0009F8D0008D38D00080080005000C003507A
:1027E000002807DB00F01F02400901239340024A42
:1027F00042F82030704700BF00E100E000280CDB09
:1028000000F01F024009012393402030034A42F8A0
:102810002030BFF34F8FBFF36F8F704700E100E0B0
:1028200010B586B01446137A03EB43031B0103F182
:10283000A04303F58023DA6EE16823690B449A42D2
:1028400016D06169914215D38B1AABB90123637617
:1028500094F82D304BB1002384F83530E36913210F
:1028600020469847636A20469847002006B010BD6E
:102870000A46E6E79B1AE8E704940649039100211B
:1028800002910193012300936368216805F06DFFB5
:10289000EBE700BF2128000838B504460568FFF7BC
:1028A00079FE844222D095F93630002B08DB03F004
:1028B0001F015B0901228A4060330E4941F8232041
:1028C00095F93600FFF79AFF287AFEF737F9287A4C
:1028D000FEF798F8FEF770F8002323606360A360AA
:1028E00023616361AB6A2846984738BD0020FFF733
:1028F00045FED8E700E100E030B589B0044600238A
:102900004376007AFEF7DAF8207A00EB40031B01E9
:1029100003F1A04303F58023DA6EE56823692B44B5
:102920009A4219D06369934218D0012323760DF19E
:102930001F01FEF751F99DF81F3043B30DF11E0141
:10294000207AFEF71BF99DF81E3003BB22460021BA
:10295000207AFFF765FF1AE02A46E3E70023237693
:10296000656194F82D3003B12563636A204698476A
:1029700023690494084A03920022029201930123DE
:10298000009363682A462168207A05F0EEFE207ADB
:10299000FEF7B4F809B030BD21280008F0B587B0C3
:1029A00006460C4615461F4638220021204606F0F2
:1029B00026FF95E8030084E8030000232376EB68F4
:1029C000E3602A69226163612A7D84F82C20AA7D54
:1029D00084F82D202363012384F8343084F83530C3
:1029E000E7610C9B23620D9B63620E9BA36295F9CA
:1029F000083084F836303460214B7360214BB3606B
:102A0000214B3361214B7361214BF360FEF724F8B6
:102A100010B1204A90422DD1002104F10800FDF7A9
:102A200099FF48BB236904941B4A03920022029237
:102A30000193012300936368E2682168207A05F01E
:102A400094FE0446D0B995F90830002B08DB03F05A
:102A50001F015B0901228A406033104941F823209D
:102A600095F90800FFF7BCFE3046FFF787FD2046CA
:102A700007B0F0BD1024FAE71024F8E71024F6E7B9
:102A8000498F00083F900008718E0008778E00087B
:102A900099280008038000F02128000800E100E0E8
:102AA000BFF34F8F0549CA6802F4E062044B134339
:102AB000CB60BFF34F8F00BFFDE700BF00ED00E02C
:102AC0000400FA05BFF35F8F074B5A6A22F4803285
:102AD0005A62D3F8942022F00102C3F89420BFF385
:102AE0004F8FBFF36F8F704700ED00E070B5FFF7B9
:102AF000E9FF234C234EB4423ED026F01F05203D73
:102B0000A0220021204806F0B3FAB5F1005F0DD3F2
:102B10001E490B6845F001051D4AC2F898301D4852
:102B2000C2F89C00C2F8A05001330B60B44210D030
:102B30001F3424F01F0444F0030414490B68144AA2
:102B4000C2F89830C2F89C401348C2F8A000013384
:102B50000B60BFF35F8F0E4B0522C3F894205A6AB7
:102B600042F480325A62BFF34F8FBFF36F8FBFF3CF
:102B70004F8FBFF36F8F70BD4FF08045C0E700BF30
:102B8000F0080020F008002090ED00E0900D0020FB
:102B900000ED00E003000020E1FFFF3F10B50A4612
:102BA0000446A1B10E4A0F490F4801F08BF94FF0CE
:102BB00054320E4BC3F8D820552283F8DE20FF2272
:102BC000A3F8DC20802283F8E3204FF401524FF475
:102BD0000151204603F000FA03F01CFA002010BD5A
:102BE000B8A20008C0A2000888A20008003E00B0F9
:102BF00007B50C4AA2F8DC10437D0C3B052B4FF0C7
:102C000000030DD901938DF80410D2F8D83069462D
:102C10001BBA0522009304F027FA03B05DF804FB09
:102C20001846FAE7003E00B01FB50E4BC3F8D810A7
:102C300083F8DE20427D09BA0C3A052A89BF0022BA
:102C40000422B3F8DC30CDE90212019185BF0522E0
:102C500002A90DEB02018DF80C3004F005FA05B065
:102C60005DF804FB003E00B02DE9F04F894647F6C1
:102C7000FF75097F89B0122928BF002103920190B6
:102C800003F01EFE4FF0000E99F81C30F346069339
:102C9000069A019BF0465A75874B884A1D805269F7
:102CA000874B884C5A6109F1170305936FF01F0396
:102CB000A3EB0903CDF810E00793059B13F801AFD0
:102CC000BAF1040F059304D059F82B300293013365
:102CD0005AD14FF0FF33E38123820023C4E900334C
:102CE00023764FF0000363820BF1010BBBF1040F5D
:102CF00004F124040EF1240EDFD1B8F1000F01D04D
:102D00006D4B1D80704B049A83F8E520069A83F87A
:102D1000DF2099F81D309B070DD56A4B6B4A196867
:102D200091420BBF6A4A6B4A1A601A600CBF6A4A2A
:102D30006A4A52695A61039B61490198002B00F06D
:102D4000B48003F003FA604B019893F8DE20D3F8C7
:102D5000D810B3F8DC50FFF767FF044620B92946C6
:102D60000198FFF745FF044699F81D204FF4002114
:102D700012F0010218BF4FF40022019803F02CF961
:102D8000204609B0BDE8F08F079B059A33F9127011
:102D9000039B002B69D0BAF1020F1CD0BAF1030FCC
:102DA00036D0BAF1010F49D1A446BD42C8BF3D4655
:102DB0004B4E039B7644C8BF98460FCEACE80F003D
:102DC0000FCEACE80F003368CCF80030029B67826E
:102DD0006360102315E0A446424EBD4276440FCEF8
:102DE000ACE80F000FCEACE80F003368C8BF3D461B
:102DF000CCF80030029B67826360039BC8BF984693
:102E00000123049A03FA0BF31A43D3B204936BE73A
:102E1000A446354E039BBD427644C8BF98460FCEAC
:102E2000ACE80F000FCEACE80F003368C8BF3D46DA
:102E3000CCF80030029B6782636055E7A4462B4BB9
:102E4000BD4253F82A309E6876440FCEACE80F009E
:102E50000FCEACE80F003368CCF80030029B6782DD
:102E6000636025DC2F463D463EE7A4461F4BBD422E
:102E700053F82A30C8BF3D469E68C8BF4FF00108CE
:102E800076440FCEACE80F000FCEACE80F003368ED
:102E9000BAF1020FCCF80030029B67826360AFD0BA
:102EA000BAF1010F7FF420AF93E706F02FFA4AE75B
:102EB000DDF80C80D7E700BFDE08002098D90008B5
:102EC0002C080020940D0020003E00B058EC0008B3
:102ED000A0E70008E8E20008A8DB0008D0DA000854
:102EE00040DA000818DB0008B0D9000844080020C8
:102EF000FF28074B09BF0A6851F82020C3F8782241
:102F00004A6818BFC3F87822C3F87C22704700BF14
:102F1000004001B8144BFF281870144A144B09D113
:102F20001821C2F8FC131022C3F8FC23114BD3F86C
:102F300074320DE0C0431821C00000F00800C2F850
:102F4000FC13C3F8FC030028F0D10A4BD3F8783205
:102F500040F2FF31054AC3F30903C2F80C11A2F590
:102F60008052C2F80C31704706110020002002B8D0
:102F7000001002B80080E00F014B1878704700BFC6
:102F8000061100204FF03A43D3F81421D2031ED586
:102F90004FF480320E49C1F81421A1F58051C1F8D7
:102FA00018215A6DD1B2C2F30722C3F8A410C3F896
:102FB000A4200422C3F8A4200022C3F8A420C3F84C
:102FC000A420C3F8A420C3F8A420C3F8A420704709
:102FD000002000BA054B012218604FF03A435A67AF
:102FE00040F6FF72D96418651A677047280E0020F2
:102FF0002DE9F04105460124006800F00700063085
:1030000004FA00F3A868EC685E1EA04262D000EAF1
:10301000060E6C6810441E430640A3EB0E000EEB38
:10302000040C8242644618D9D31A0EEB030298B1FD
:10303000431E052B04D94B1CACEB0303022B59D8C0
:103040000B460844ACEB010E03EB0E0113F8014BE9
:1030500083420C70F8D101466C688AB1531E052B6F
:1030600001F1010302D9E01A022812D80A44611EB4
:1030700000E0013313F8010C934201F8010FF8D17D
:1030800005F0BEFD0223AE60AB62BDE8F04105F085
:10309000BBBD0B46204622F0030E8E4453F804CBF2
:1030A000734540F804CBF9D122F00303D01A9207FC
:1030B00001EB030C04EB0307E2D0CA5C0128E254E5
:1030C000DED09CF8013002287B70D9D09CF8023009
:1030D000BB70D5E7042A35D90878043AA861487846
:1030E0000431A86111F8020CA86111F8010CA86163
:1030F000A8688CE70B4620F003070F44ACEB010EE9
:103100001C684EF803400433BB42F9D120F003039E
:1031100010F0030F01EB030EA0EB03040CEB03070D
:1031200028D011F80380012C0CF8038022D09EF8DF
:103130000130022C7B7018BF9EF80230084418BF83
:10314000BB7088E7013A032A12D8DFE802F00F15B6
:1031500007020B4613F8012B1946AA610A4612F81A
:10316000013BAB61114611F8013BAB610B78AB61E0
:10317000BDE8F08108446EE70A46F3E738B50B4630
:10318000154601464FF03A4470B101221048C4F888
:10319000F4201A46FFF72CFF25B14FF03A430422E2
:1031A000C3F8F420002038BD73B1D4F8D8209A4277
:1031B00084BF0122C4F8F4204FF03A42C2F8D43060
:1031C0000223C2F8F430E7E70123C4F8F430E3E760
:1031D000CC0000BA10B505F013FD4FF03A430122C0
:1031E0005A67C3F8B420C3F88C20154A1549C3F8B0
:1031F00090200722C3F8B020134B04461A80002306
:10320000124A13804FF4A022C1F81421A1F5805175
:10321000C1F818210E4A13600E4B5B6C5B020AD595
:103220004FF480020C4B18680C4BD8305A6450F89D
:10323000A01C01F027F82046BDE8104005F0E4BCD2
:10324000F8080020002000BAEA100020E810002052
:10325000240E0020000002B8900E0020002002B8CA
:1032600007220D4B01211A8000220C4B1A804FF0CF
:103270003A43C3F8F410C3F8CC204FF40052C3F81B
:10328000D000C3F8F020F022054B9A64A022A3F5E9
:1032900080539A64FFF79EBFEA100020E8100020D8
:1032A000006000B82DE9F041044688B105F0A8FCA3
:1032B0003D4E3E4A3388032C03F0780105463C4FCF
:1032C00003F07F0C11445DD13C6824B905F09CFCEF
:1032D0000320BDE8F08124F00104386820F00100EB
:1032E000A04254D100223A6022888C426FEA4242C6
:1032F0006FEA5242228040D12E4CDFF8D0C027889E
:10330000ACF180083A46083A92B201F108006045F3
:1033100028BF4046082A04D9B0F900E0BEF1000FEA
:1033200040DB228088780C884FF03A413B449B1A5E
:10333000DBB2C4F30C048C653380C1F89830C1F85B
:10334000B0204FF480221C4B00F00700C3F814217A
:1033500001221A4BC3F88421FFF714FE04280CD174
:103360004FF48002164B5B6C164B1868164BD83026
:103370005A6450F8A01C00F085FF284605F044FC74
:103380000020A6E7601E012898BF0C46A5E7094863
:1033900062440088A21A48BF803208389042A3DCF9
:1033A000284693E70146AEE7E8100020F808002021
:1033B000240E0020EA100020002000BA00E100E006
:1033C000000002B8900E0020002002B8780900200A
:1033D0001249134B0A881B8812481344083292B2D0
:1033E0000A804FF03A41C1F8B0204FF480210E4AD4
:1033F000073BC2F81411012103F0780303449878C5
:103400000A4A00F007000428C2F8841103D10849D1
:10341000CA681203FCD4074A13607047EA10002000
:10342000E8100020F8080020002000BA00E100E0C9
:10343000000002B8240E002010B5054C206828B109
:10344000C30701D4FFF72EFF0023236010BD00BF88
:10345000240E00204FF48033084AC2F81831A2F538
:103460008052C2F814314FF03A43D3F8AC30C3F372
:103470000C03782B01D8FFF785BD7047002000BAF8
:10348000034B1A6802609B8883800020704700BF4E
:10349000E008002010B5044600F06AFD063C074B2A
:1034A000032CD3F8F80706D800F4C020B0F5C020EC
:1034B00018BF012010BD0020FCE700BF000002B8CB
:1034C00008B50E4BD3F8FC37FF2B0ED0C3F34211D7
:1034D00003F01F03013303EB4112FE2A88BFFE23D2
:1034E000074A98BF03EB4113137000F09DFD41F6AE
:1034F0006A03B0FBF3F0034B186008BD000002B88C
:10350000EC0800202C0E0020063803289ABF024B3E
:1035100018780020704700BFEC080020334BD3F828
:10352000F827D3F8FC17324B1B68D3F8C83013B117
:103530001A68032A2BD82F4BDB6BC3F3C20013F09E
:10354000380F03F0070218BF424313F4E07FC3F3C0
:10355000821000D04243C1F34213022B234919D9F0
:10356000062A37D9D1F8FC3313F0010335D14FF0D7
:10357000E0702149092AC1F82C012048C0F82C31FB
:103580006FF0FF03C1F828311DD91D4B1DE09A6A69
:10359000520EE0E70023D1F8FC13C907E7D5032A50
:1035A0001CD84FF47C71144A43F44C73C2F82C11AC
:1035B0004FF0E071C2F82C111049C1F82C316FF0B6
:1035C000FF03C2F828314FF408530C4A0020C2F818
:1035D000283170474FF40003DDE700234FF47C707F
:1035E000054943F43873C1F82C01C0E7000002B864
:1035F000900E0020008001B8002002B8001002B830
:10360000002DB00BF8B5834D04462978002950D120
:103610002C22814806F0F3F82378804FFF223B707C
:10362000638800247B807E4B4FF48150C3F8DC40DC
:103630007C4B1A7007227C4BD3F8F817D3F8FC6741
:1036400003F50053C3F8FC234FF47072C3F82C2128
:10365000764A4903C3F830214FF00102C3F8342100
:10366000C3F86C014FF40060A3F58053C3F86C01FC
:1036700026D4C3F8FC234FF4307216F0E00FC3F8E1
:103680002C2108BF4FF480524FF0080008BFC3F848
:103690006C21FEF787F94FF4780420226449C1F8C1
:1036A0006C213A78063A032A2BD8DFE802F0156B32
:1036B0006E7300235F4AC2F8FC305F4A1370ABE7B9
:1036C0000421C3F8FC1380210920C3F82C11C3F88E
:1036D0003421FEF767F9E0E716F0E00FC6F3421277
:1036E00004D144F40C3444F440740AE0012A1BBFB2
:1036F0002020524A44F4C134C2F86C0118BF44F48B
:103700008024C1F83041FFF709FF002839D14C4B24
:103710001A68B2F1406F474A5BD3D3F87C1201318B
:103720003BD0D3F87C12C9B2C2F8DC10D3F8803297
:10373000404ADBB24249C2F8E430D1F88432013366
:1037400043F63F7332D0D1F884421C40C2F8D840CF
:10375000D1F888120B40C2F8E030394BD3F88C1204
:1037600001312CD0D3F88C1201F0FC01C2F8F0101A
:10377000D3F8903203F0FC032E4AC2F8F430012350
:103780002B70F8BD44F40834ADE744F4A73444F496
:103790008074B6E744F4FE44B3E72349D1F82831F6
:1037A000DBB2C2F8DC30D1F82831C1E71E4CD4F8C6
:1037B00024111940C2F8D810D4F82411CAE71A49C4
:1037C000D1F8343103F0FC03C2F8F030D1F83431D1
:1037D000D0E71549D1F8F847D3F83012C9B2C2F88A
:1037E000DC10D3F83432DBB2C2F8E430630357BFE5
:1037F00043F62B3341F61B33C2F8D830C2F8E03021
:1038000049BFC2F8D830FC23C2F8E030DC23C2F84C
:10381000F030B1E708110020D43F00B0E0080020EC
:10382000004001B8EB080020000002B800FFFF00D4
:10383000001002B8003F00B007110020002002B8BD
:103840000080E00F2DE9F04F846C4C22022C38BF31
:1038500002248E49013CCB6CD1F8DC508C49C3F377
:103860008213DA400B688046A34290F804A1C77D1A
:10387000884BDFF854B287B002F0010219D11878F2
:10388000904216D184480078504512D1D8F84C00A7
:1038900078B1A8420DD18148D0F8F800860608D446
:1038A0007F480078B84204D1BBF8040007B0BDE8F7
:1038B000F08F9BF800000C601A70FFF725FEFF2FB9
:1038C0008146764940D1AAF10603032BD1F8F810BE
:1038D000744B2FD88D064BD540F2FF310127C3F82A
:1038E0008810BB0843F438736F49C1F888306D4BBA
:1038F0000121C3F8E010002A4FD0D8F8C850002D9D
:1039000044D02B6840F27126082B34D800F08CFB91
:10391000B0FBF6F0192360430025B0FBF3F0294615
:10392000059005A805F03BFC0602059C46F0110633
:103930002D0461E088061CD540F2FF31C3F88810E1
:10394000FB0843F44073CFE7431EBB4228BF3B460E
:10395000012B38BF0123D1F8F810DFB2890608D552
:1039600040F2FF304F491B06C1F88800E8D4B8E7A1
:1039700001274D4BBCE795F8385000F055FBB0FBE4
:10398000F6F019236043B0FBF3F0C8E700F04CFBFE
:1039900040F27123B0FBF3F0F3E700F045FB40F297
:1039A0007123B0FBF3F619236643B6FBF3F63F4BE6
:1039B0009821A3FB062303A8039305F0F0FB039CC7
:1039C0003B4A361BA2FB06120190342104A8049244
:1039D00005F0E5FB049D0090761B302105A80596B7
:1039E00005F0DDFB019B009A1E02059B2C4446EA74
:1039F0000216304D06431C442F4B40F6C702186890
:103A00002B21003818BF012002F0AEFDFA222A4B0C
:103A100002FB04F01B6840F6FF72B0FBF3F00A23D0
:103A20005843204B00F57A74C3F8D820A3F580538F
:103A3000C3F8D860A3F58053C3F8DC501F4B204E69
:103A40001B78C6F8D4700BB9C6F8FC7086F8FB90EA
:103A500000F58C50C8F84C501A4D14302C6000F012
:103A6000C9FF4FF47A72C6F89800C6F8EC002B68CC
:103A70000B49B3FBF2F3ABF80430074BB4FBF2F0A5
:103A800083F800A098F817300B700FE7004001B8DA
:103A90005408002009110020EA080020004F00B05F
:103AA000E9080020006001B8005001B869C2F5685B
:103AB000B97A146E3064FC002C0E0020071100202F
:103AC000003F00B0300E0020E008002010B5104B81
:103AD000024618780F4C0E2802D1FF20207010BD2E
:103AE000831F032B8CBFFF210121FFF70DFD9042A7
:103AF00028BF1046C0B2884238BF084623788342A8
:103B0000EDD0054B20701868FFF79CFE2078E6E7A3
:103B1000E0080020EB080020900E002008B50E4BB6
:103B2000024618780E2812D0FF2A13D0FFF7ECFCBB
:103B3000904228BF1046C2B2012A38BF0122074B6B
:103B4000C3F8FC200123064910460B7008BD002372
:103B5000FF22F8E70023F6E7E0080020003F00B06E
:103B6000071100200020044B1870044BD3F8D42018
:103B7000C3F8FC20704700BF07110020003F00B0D1
:103B80002DE9F0472D4B2E4C4FF47A76A36000F0D0
:103B90004BFA4FF4FA73B0FBF6F673430746294825
:103BA000190E1B021818284A4FF0000341F10001BA
:103BB00004F00AFBA0F580730546236320B9662252
:103BC0002B2102F0D1FC01254FF47A724FF0000A4C
:103BD0006A4353465008310204F0F6FA1B4BB7F51E
:103BE0007A7F19601A4B4FEA0568894604461860C7
:103BF0004FEA152505D276222B21504602F0B4FC5F
:103C000001264FF47A73A8FB030103FB0511730827
:103C1000C01841F100010023324604F0D5FA0D4BE3
:103C2000023419600C4B49F10009A408186044EAF9
:103C30008974034B013C9C63BDE8F08702110100CD
:103C400000C001B820A1070040420F00400E002034
:103C50003C0E0020380E0020340E00201022044BB1
:103C6000C3F884215A600122024BDA60704700BF1A
:103C700000E100E000C001B838B501250A4B02019F
:103C80009D504FF480730446084A8340536604F005
:103C9000B7FF074AA540137823EA05031370BDE870
:103CA000384004F0B1BF00BF00E101B800E001B846
:103CB0000A110020044B01F0F071103041F00301B3
:103CC00000011950704700BF00C001B838B504F0BA
:103CD0009EFF084B084A1D6A92F8C9405A6EE4B22A
:103CE000520744BF1D6A013404F097FF284604F0D0
:103CF000030138BD00C001B8003E00B008B5222065
:103D000004F072F94FF48022014BDA6008BD00BF65
:103D100000C001B8064B1B68434303EB8171054BA0
:103D20001B68A3FB003013F1004341EB0000704718
:103D3000380E0020340E00200C4A20F0404301468B
:103D400010B5002014684FF00042E4FB0320084A3D
:103D5000890F126802FB0300064B9B6B984204D943
:103D600001330131C01A01F0030110BD3C0E0020E7
:103D7000400E002000C001B8836833B10549C26815
:103D8000096803F13043032A00D8704743F8041B45
:103D9000043AF8E76C08002070B50C68651C15D073
:103DA000C4F302669E42C4F3074530D1A4B29442E4
:103DB0002DD804EB8506B24229D2141BA50824F0A5
:103DC00003040E59340F04D0012C09D00022012322
:103DD00003E06B1C51F8232000230260037170BDC7
:103DE0000D4C34F8133042EA03431A686B1C51F847
:103DF000234001EB83014B6822405E4036F0704463
:103E0000EAD11B0F032B04BF8B681A43E4E701358B
:103E100001EB8501C1E700BF3CA2000870B5164662
:103E2000054610B90124204670BD0029FAD0426829
:103E3000104B006803321B68920800F1304098472D
:103E400004460028EFD1002EECD0EA68A8680332BF
:103E50003146920800F1304005F0E0F904460028B0
:103E6000E1D1D5E90402214600F1304005F0C7FC5C
:103E7000D9E700BF5808002007B501A8FEF7A2F84F
:103E800042F201020C4B0D49C3F870224FF4FC7250
:103E9000C3F8E0205822A3F58053C3F8E020084A75
:103EA000A3F61C7352F8040B43F8040B8B42F9D1B0
:103EB00003B05DF804FB00BF006001B8104101B819
:103EC00010A20008836810B4074C03F13043246843
:103ED0001B689C4203D15DF8044BFFF79FBF002095
:103EE0005DF8044B704700BF6C080020002310B53C
:103EF000174C012163643A20A364E364FDF786F95B
:103F00000122144B5A6102229A62E368C3F30363ED
:103F10000D2B01D0002BF8D111230F4AE3630F4979
:103F20000F48FFF77BFF00F071FE0E48FFF724FFFC
:103F30000D48FFF721FF0D48FFF71EFF4FF080628D
:103F4000044B5A61012203F580535A6110BD00BF32
:103F5000000002B8001002B8BCA2000878A7000850
:103F6000A0A2000870A2000888A2000858A20008B9
:103F700001230D4A0D49C2F8803291660C4A536004
:103F80000C4A53600C4A5360A2F580425360A2F57C
:103F90004042536002F5C032536002F580425360E4
:103FA000A2F500425360704700900050FF0B0016CE
:103FB00000D000B8001000BA005001B838B5032492
:103FC000FFF7D6FF124A134B134D1A6500F0FCFCA5
:103FD000FFF752FF114BC3F8104101232B6500F08E
:103FE0004BFC4FF460736B614FF400732B65FEF76D
:103FF000C3FF0021FEF78EFF8022094B1C64A3F54E
:1040000080535C64074BC3F884215A6038BD00BFFD
:104010000048F000000002B8001002B8005001B8DB
:1040200000A0095000E100E008B5FCF71DFB044BBF
:104030001B6FC3F300430133B0FBF3F008BD00BFB7
:104040000080005070B5044690B1A9B13A4A52F8C8
:10405000043B834212D10023384A116CC907FCD4B7
:104060009B0003F5804340331360354B01221A64F3
:1040700070BD01330C2B02D1324D2CE0012352F8DC
:10408000041BA142F5D1304A32F81330E4E7C2F301
:10409000016335F81300110C93B211F0FE0F43EADF
:1040A0000043606820D00434CAB2022A216808D9CB
:1040B000D4E90160033AC3E9001698600C340C336C
:1040C000F3E704D16268C3E90012083403E0012A6F
:1040D00001D1043419602268531CD8D10022174B37
:1040E0001A6003F58053C1E7120F072AEDD8DFE805
:1040F00002F00704090D1013181DC04303F5005307
:104100001860E2E71A6842401A60DEE703F5805360
:10411000F6E705F078F8D8E7012203F580538240EE
:10412000F2E7012203F500538240EDE71A6830EA16
:104130000202FBD1C9E700BF440E002000C002B854
:1041400000D002B83CA20008EA1000200122014B76
:104150001A657047001002B80122014B1A657047BA
:10416000002002B84022014B1A657047002002B8B7
:104170004022014B1A657047001002B8064BDB68FD
:10418000C3F30363984206D1044A936F23F0F0030C
:1041900043EA011191677047000002B8003F00B088
:1041A0002DE9F0470E4605F027F800248046DFF899
:1041B000B4A0DFF8B49004F023FDDAF80C30074621
:1041C000C3F30363012B0BD1711C35D005F014F838
:1041D000A0EB0804384604F017FDA642EBD80DE02A
:1041E000052BF1D00B2BEFD0023B012B09D9013667
:1041F00002D005F001F8384604F006FD1848BDE885
:10420000F087D9F80C3013F4603FDDD0D9F81830BE
:104210001A04C3F3891512D4013602D004F0ECFF5E
:10422000384604F0F1FC2DB26FF4FF73A5F1C8001D
:104230009842B8BF1846E2E704F0E6FCBBE7731CFF
:1042400003D004F0D9FFA0EB08046FEA85556FEAAC
:104250009555384604F0D8FC15F5007FBDD0E3E74E
:1042600000FEFFFF000002B800C000B8044BD3F806
:10427000B03010B1C3F30332027003F00F00704787
:10428000000002B8064B01F080015B6C03F4800370
:104290000B4302BF4FF40012024BDA64704700BFB9
:1042A000000002B8006001B870B52C4B0C461A78BB
:1042B0001AB92B4AD2F86C221A702A4A126D52058A
:1042C0004AD51D78284B05F00F06B0FBF3F04043AC
:1042D0004FEA151505D140F299622B2102F044F9FD
:1042E0000120224A0A217243B2FBF0F34843B3FB98
:1042F000F1F602EB5002B2FBF0F201FB1633042B95
:10430000D2B207D8C3EB8310C3EB80035BB283B98F
:104310006DB217E0C3F10B0303EB8303DBB2B3FB16
:10432000F1F32B44DDB20F2DF2D9013AD2B2053DA3
:10433000EEE7053B5BB293FBF1F31D44EBB26DB2CC
:10434000002D04DB002042EA0512226070BD01321C
:104350000533D2B25DB2F5E70220F7E71311002072
:104360000080E00F000002B8403B250080969800D6
:10437000F8B50B46002213F8044B944225D91D686A
:10438000854224D106245A791D79124B88181E685B
:1043900004FB0503104F33F8063C7B43B3420ED9B0
:1043A00000238A5A7A43964202D804FB0300F8BDE0
:1043B0009D42FAD9013304FB03F2825AF2E740F23C
:1043C0005F423D21002002F0CFF80020EFE70833E4
:1043D0000132D2E7740E002040420F0000202DE988
:1043E000F04FA2FB016AB94FDFF824C3F7191D464D
:1043F0006AF10003BC4570EB030383B008D240F2BE
:1044000059220E2102F0B0F8022003B0BDE8F08F6F
:10441000D5F828908B461446B9F1000F04D0D9F88E
:104420000030032B00F29381A94BAA4A9B6BD2F870
:10443000FC90C3F31408A84B1B6F59074EBF4FF4F1
:1044400040039B0503F0E07348EA0308A34BD3F84D
:10445000EC305A0048BF48F0807848EA4468FCF7DE
:1044600033F90746002CCFD00028CDD09C4B6E628C
:10447000C3F800B09B4B984200F0B18103F51223C2
:1044800003F5F863984200F07381974B984200F06F
:10449000B1810246002300204FF0007103F094FE2A
:1044A0000023013006FB03F300FB0A33A6FB0002E6
:1044B0001344203389499B092B60D1F8ECB3D1F820
:1044C000F033D1F878A1D1F8A010009308465840F5
:1044D00030F47F630CBF0120002040F2BB22019129
:1044E000102102F041F88BEA0A0232F47F634FF0A8
:1044F000100140F2C1220CBF0120002002F034F86C
:104500007A4A009BD2F86012C9B2FF291CBF2AF474
:104510007F6242EA0112764908BF5A468E4207D9A5
:10452000211F012940F2278172498E4200F2238126
:10453000B7FBF4F7C8F31301A1FB0717AB61684B96
:10454000C90C41EA473118F4801F1F686A4B08BF45
:1045500049421960694B0F44C5E907B21F60B9F1C0
:10456000000F00F0328100236B60AB60D9F81C6053
:10457000D9F800A0002E49D0BAF10F0F97BF574BC2
:10458000B9F818B0D3F88C31C3F3832B524B98BFD2
:104590000BF1080BD3F83C31B7FBFBF2DB0216D56D
:1045A000002381EAE17EAEEBE17E5549C8F38158F4
:1045B00011F808C0194650084FEACC5CCCFB0E013C
:1045C000009203F001FE009AC0F3130068605F459B
:1045D00004D3B2FA82F10D2940F3048133469103EA
:1045E000B1FBF3F14B004FEAC23E0133520C01E044
:1045F00002330131A3FB06C0E64572EB0000F7D29F
:10460000C1F30E01090341F00061A960BAF1050F81
:1046100040F2DF80D9F82C60002E00F0B6803078B0
:1046200004FB07F7A0F10400B0FA80F040F2265234
:104630003D21400901F098FF324B9F4240F2018139
:10464000314B9F4240F20181304A974294BF02228F
:10465000032244F21421FF0B07EBC70307EB4303CC
:104660009B0B013B5B0232446B61567801FB07F206
:10467000B6EBD25F4FEAD25380F0E5802644B342D6
:1046800040F2D7802644B34240F2E1802644B34250
:1046900040F2DF802644B34240F2DD802644B3423C
:1046A00098BF052040F2C680002040F241523D21D3
:1046B00001F05AFF44F6776307FB03F3DB0D013B80
:1046C000B34280F0BC80002026E000BF006CCA88A6
:1046D000008001B8004F00B0004001B8000002B8EF
:1046E0007C0E002000F04902005A62020080E00FB8
:1046F00000BBEEA000AE5EA7780E0020740E002076
:1047000044A2000820D4CB8F00DAF89AE0DF25A677
:10471000807C814A042804D8361BB34200F1010092
:10472000F8D303288CBF0020012040F24D523D21D8
:1047300001F01AFF01216B69A6F1140242EA8642D8
:104740001343D9F800A06B6185F82C101FE0042BEF
:10475000D9F828807FF483AE18F0807F14BF4FF41F
:10476000400308F0E07328F0E07848EA030876E6B2
:1047700000233A4896E6019B2AF47F6A23F47F637C
:1047800043F42A634AF4CC6BD2E685F82C6000230C
:10479000BAF1060FEB6018D9D9F83030ABB1FBF79E
:1047A00093FFD9F83010FFF7E3FD044608B1837892
:1047B0001BBBFBF753FFD9F83010FFF7D9FD20B131
:1047C000837813B1C3781B042B61002003B0BDE8CC
:1047D000F08F0023002085F82C30EB60F6E70023F3
:1047E0001F485FE6C1F10E0326FA03F302FA01F156
:1047F0000133F5E600231B4854E640794FF4AE62DE
:10480000003818BF01203D2101F0AEFE207940F2B2
:104810007152003818BF01203D2101F0A5FE237917
:1048200062791B0243EA0213EB60E3781B042B61FD
:10483000BFE7012003288CBF0020012035E70120BD
:1048400073E7002205E701202FE7012201E702209C
:10485000F0E70320EEE70420ECE700BF313641DC4F
:104860000A3BB2DFD694BFD64FF40022014B0020A2
:104870001A657047002002B80E4BD3F88022D20789
:1048800014D55B6E002B13DA0B4B9B6813F00C0FE7
:104890000ED10A4B4FF480021A65064B5B6E002B5B
:1048A0004FF48043B4BF054A054A136500207047A2
:1048B000034BEFE70080005000400950002002B891
:1048C000001002B830B505460C468DB059B9334BCF
:1048D000827AD3F8FC30416831480A9300686B460D
:1048E000FFF77CFD6C462F4B22685A632B4BD3F8A5
:1048F000FC30002B3BD0636843B12B4B2B4AC3F8F1
:104900003C216268A3F58053C3F83C21A36843B1FE
:10491000254B274AC3F81C21A268A3F58053C3F88E
:104920001C21244AE168D2F8983194F82C0023F431
:10493000EE630B43C2F898316FF078421E4B1F496B
:104940009A606269A3F580539A604FF44033C1F8CE
:104950008C3122691A4BC3F88C214FF40012D0B16C
:104960000A65FFF789FF1749606AFFF79DFC002081
:10497000A269104BC3F8A020E269C3F87821226A2B
:10498000C3F8F8232A89A3F5E0339A6203F5A0332C
:1049900018640DB030BD1A65E3E700BF004F00B0EA
:1049A000900E0020008001B8006001B8FFFF0F00EA
:1049B00000F0FF0F000002B800600C50002002B8A9
:1049C000001002B8588001B84FF48062014B1A659C
:1049D000704700BF001002B840B10368012B05D931
:1049E0000069034B002808BF18467047004870470D
:1049F0004CA20008084BC1171A68A2FB000302FB77
:104A0000013310F1807043F10003400E40EAC310FF
:104A1000803820EAE0707047840E00200722194B8E
:104A200070B51A64FFF700FB174BC408010B05466D
:104A3000E005C018154A41F10001002303F0C4FB52
:104A4000134B144E18601448FFF7D4FF4042C6F8C9
:104A5000D00049F65800FFF7CDFFC6F89C000F487C
:104A6000FFF76AF9024660B1E301500818184FEAEF
:104A700015714FF0000341F1000103F0A5FBC6F8EA
:104A8000A80070BD000002B8B2E60E0065CD1D00A2
:104A9000840E0020003F00B07011010040420F0062
:104AA0002DE9F047064608469846FFF795FF15465C
:104AB000074616B308F0020918F004081FD1B9F12F
:104AC000000F1AD04FF47A7073685843002B40F0EF
:104AD0008680FFF78FFF28637369002B00F08580C5
:104AE0004FF47A72B86802FB0300A0F5FA50FFF7A2
:104AF00081FFE862B8F1000F53D1BDE8F08730695B
:104B0000002863D04FF47A735843BB68A0F57A60ED
:104B1000C01AFFF76FFFA862B08B002859D04FF47E
:104B20007A735843BB68A0F57A60C01AFFF762FF3A
:104B3000E861324BF468D3F800A0002C4CD04FF45D
:104B40007A735C43BB68A4F57A64E41A7B68E41A60
:104B50002B4BE1171A68A2FB044302FB013314F14B
:104B6000807443F10003640E44EAC314803C254B77
:104B70002C62D3F8B830244C6B6223684BB150469A
:104B800004F095FD28B12A4639462368DAF87C00FE
:104B90009847B069002104F089FB6863B9F1000F00
:104BA00090D1B06820BB47F23050FFF723FF686117
:104BB0004FF47A703368584323B13B6803F51C53B4
:104BC00010331844FFF716FFA86196E74CF25030F7
:104BD0009FE74CF25030A9E74CF25034B8E73B68FD
:104BE00003F51C531033184473E747F230507EE747
:104BF0004FF47A735843A0F5FA50D6E7900E002090
:104C0000840E0020003F00B0800E002070B5154CCF
:104C10008CB001AD0FCC0FC50FCC0FC594E80700C9
:104C200085E80700A02200210F4804F0E8FD2022BB
:104C300000210E4804F0E3FDAC2200210C4804F0F2
:104C4000DEFD04F098FD0B4B1B784BB1054E01AD1A
:104C50000FCD0FC60FCD0FC695E8070084E80700FB
:104C60000CB070BDD43F00B0603F00B0E04F00B06A
:104C7000B43E00B00811002010B50B4B0B4A586A27
:104C800014789A6A20F4706122F0E052C0F3032095
:104C9000844241EA042142EA846235BF9A62596241
:104CA00059629A6210BD00BF00C000B81E110020FA
:104CB0000A4B197801F0FF0229B100211970084947
:104CC0009202C1F80821597801F0FF0229B10021B0
:104CD00059709302024AC2F80C3170471411002037
:104CE000005000B8084BD3F8FC0E084B9A6C110129
:104CF00007D4074A926E920705D5D3F8F4339B0781
:104D000001D500F580707047003000B0000002B897
:104D1000004000B808B503F073FF0E4B1A78A2B933
:104D20000D4A126812F4843F0FD10C4A102111650C
:104D30001B7863B9084B1B68DB0508D4074B20229E
:104D40001A65BDE8084003F05FBF054AEEE7044B73
:104D5000F5E700BF1811002078090020002002B8F4
:104D6000001002B810B503F04BFF0E2104460320DB
:104D7000FFF704FA40F20122034B2046BDE8104041
:104D8000DA6203F041BF00BF004000B80022044BCC
:104D90001A70044B197811B11A70FFF7BBBF704736
:104DA000171100201811002008B503F029FF4FF05B
:104DB0000042264BC3F88020BFF34F8FBFF36F8FA5
:104DC0000122C3F88420BFF34F8FBFF36F8F0222FD
:104DD000C3F88420BFF34F8FBFF36F8F0422C3F853
:104DE0008420BFF34F8FBFF36F8F0822C3F8842056
:104DF000BFF34F8FBFF36F8F4FF08042C3F8802017
:104E0000BFF34F8FBFF36F8F1022C3F88420BFF31F
:104E10004F8FBFF36F8F2022C3F88420BFF34F8FD3
:104E2000BFF36F8F4022C3F88420BFF34F8FBFF3CF
:104E30006F8F4FF48072C3F88420BFF34F8FBFF39E
:104E40006F8FBDE8084003F0DFBE00BF00E100E067
:104E500008B503F0D5FE4FF000420C4B1A6001225A
:104E60005A6004225A6008225A604FF080421A6049
:104E700010225A6020225A6040225A604FF48072F9
:104E80005A60BDE8084003F0BFBE00BF00E100E08B
:104E9000012370B5074C2370074B1E68074B324047
:104EA000D3E900531940284001F0F8FB0023237098
:104EB00070BD00BF161100208C0E00207809002064
:104EC0002DE9F047DDF8209003EA0108099B06462A
:104ED0000D4602EA000703EA090AB9F1000F40F0A3
:104EE0007581031F0B4300F02481052871F1000335
:104EF00080F0F08050EA010300F0C081431E0B43B4
:104F000000F03A81FFF750FFC04AD2E9004323EA9C
:104F1000050324EA06043C4343EA0807BC4BC2E904
:104F200000471E6826EA090646EA0A061E60FFF7E1
:104F3000F1FE16F0020F42F2020308BF0223B54A47
:104F4000B548D26E83EA020122EA0302C266B34A7E
:104F50000B408166D366C4F380421203230348BF2B
:104F600042F48072E50648BF42F40052A00648BFF2
:104F700042F40072610648BF42F480622306A84BE7
:104F800048BF42F40062DB68A64882EA030123EAD4
:104F90000203C360A44B0A40BD058160DA6007F4D8
:104FA000007300F16781A14A1D46D2F8A41002F5F2
:104FB0000052C2F8A410C2F8A0104FF05022C2F85C
:104FC000A4309B4AE00448BF45F48035A10348BFA4
:104FD00045F4801582F89430A20748BF45F4800557
:104FE00014F4001FDFF8888206D0D8F8000004F01F
:104FF00080FB08B945F40025E3028E4B48BF45F419
:105000000035F8061A6A48BF45F40005610248BF3A
:1050100045F4001585EA020323F0010386491A408E
:105020000A621D40CB61854A854B16F0010F1D6257
:10503000844B18BF13467A07834A48BF43F0006386
:10504000126F824883EA020122EA03020267804A61
:105050000B40416613677F4A04F00103D26C3D04A4
:1050600048BF43F480637C4883EA020122EA0302DA
:10507000C2647A4A0B408164D364D8F800202002CD
:1050800048BF774B92F8292158BF764B610748BF3C
:1050900043F4806322B114F4C06F18BF43F48073EB
:1050A00032074FF03A42BDE8F047D2F8181148BF36
:1050B00043F0004383EA010222F4A0226A4811402F
:1050C000C0F818111340C0F81421684AC2F818310A
:1050D000FFF7BEBE4FF40043994208BF48454B4C12
:1050E00063D081458B41FFF40DAFA0F580630B4386
:1050F00006D020F48063A3F500730B437FF402AF66
:1051000003F07EFDD4E9003223EA060322EA050219
:1051100042EA08023B43C4E90032554A126892F859
:105120002911514A09B313F4C06F1ED04FF4807394
:1051300011E003F065FD354AD2E9003123F00403A4
:105140003B4341EA080157EA0807C2E900314FF43E
:105150008063454A0BD0C2F81431A2F58052C2F8E0
:105160001831BDE8F04703F04FBD4FF48073C2F82B
:105170001831C2F81431F4E703F042FD234AD2E9B2
:10518000003123F001033B4341EA0801C2E9003149
:105190000123314A57EA08071BBF9364A2F58052E6
:1051A000D364D36408BF9364DBE703F029FDD4E93B
:1051B000002323F400433A4343EA0803C4E90023ED
:1051C00057EA08074FF48063234AE5E750EA0103F2
:1051D0007FF498AEB9F1010F7FF494AE03F010FDA7
:1051E0000B4A136823F0010343EA0A0313604FF4E8
:1051F0008063164ABAF1000F04D05366A2F58052BC
:105200001367AEE713675366ABE700BF780900206A
:105210008C0E0020004000B8006000B8005000B8BC
:10522000004001B8006001B8005001B800400050D3
:10523000003F00B0000002B8002002B8041C0003C8
:10524000001002B80418000300C001B800E001B863
:1052500000D001B800C000B800E000B800D000B82D
:105260000D0A0A09090A0A09002000BA001000BA4A
:10527000900E002001234FF48025A2E6BDE8F087C0
:10528000024B5868C0F3C000704700BF7809002087
:10529000024B186800F00100704700BF7809002039
:1052A000024B5868C0F3C030704700BF7809002037
:1052B000034B1B6813F4C06F14BF0120002070471C
:1052C0007809002010B50446FEF778FEFFF76CFD64
:1052D00004F18000FDF7C4FFFEF708FEFEF750FC66
:1052E000FEF7BCFCFFF79AFB13490723134AD1F8DA
:1052F000FC1004F1D800FFF7D3FB4FF080710020C1
:10530000FEF7D8FC4FF000720D4B4FF40011012056
:10531000C3F80021FEF7CEFC02F072FE20B940F285
:10532000E722142101F020F9FFF79EFABDE81040B2
:10533000012002F07BBD00BF004F00B0983F00B0DD
:1053400000D001B8F8B5084C084D636C0423084F31
:105350006B64636C5B0300D4F8BD042602207E649A
:1053600003F051FF6E64F4E7000002B8001002B8C9
:10537000002002B8A82238B51B4B5D6C03F5005322
:105380005A6410229A60A3F5804302F100521A6712
:105390005A66FFF78DFC154B1B7813B90320FEF7F7
:1053A0006BFC0024124B9C67FFF7CCFF114A124B99
:1053B000D2F8FC1E0B40C2F8FC3E04220F4B5A648C
:1053C0000F4BC3F8D440FFF757FCAB0608D50D4B85
:1053D000D3F88830B3F5817F22BF8022024B1A6157
:1053E000BDE8384002F018B9000002B81B110020D7
:1053F00000C001B8003000B0DF0000FF002002B89C
:10540000003E00B0003F00B010B551B920B3154BBD
:10541000DB681B0E13F00E0F1ED1134B1B6CD9074C
:105420001AD4FFF79FFC0F4C0020FEF71FFF032844
:1054300001D0092805D1A36ADA07F5D4A36CDB03F0
:10544000F2D4FFF77FFF0122084B5A6102229A62D1
:10545000042203F580535A644FF4C062044B9A65EA
:1054600010BD00BF000002B800C002B8001002B8B2
:10547000006001B808B503210920FEF77FFE202255
:10548000014B1A6108BD00BF000002B80D4A10B5FB
:10549000D2F8A030D2F8A4100B40B3F1804F0CD357
:1054A0004FF040400849094CC1F8A400D467C1F846
:1054B000A0004FF48021064AD161034AC2F8A0300F
:1054C00010BD00BF00400050006000500000FF0110
:1054D000001002B838B5054603F092FB0446FDF70C
:1054E00079FE35B1FFF752FC2046BDE8384003F0A5
:1054F0008BBB084B1B78002BF6D0074B1D78002D7B
:10550000F2D1FFF743FC2A464FF480400021FFF719
:10551000BFFCE9E717110020161100202DE9F84F14
:105520005B4B06460D4614465B6C002A40F0AC808F
:1055300013F0A00F14BF4FF001094FF0000902F063
:105540006BF8FFF799FBA0234FF0000ADFF85C81AE
:105550000320C8F84430FEF78FFB0420FEF78CFBD5
:105560004C4FFFF713FC4C4B4FF0040B7B67C7F815
:1055700078A0FFF7E7FE494B4FF48071D3F8CC2EAB
:1055800042F02002C3F8CC2EFF22C8F80820404A7F
:105590001161D3F8FC2E42491140C3F8FC1EC8F833
:1055A00044B0C3F8D4AE7B6913F0060F04D0FEF705
:1055B000A5FB5846FEF760FBB9F1000F09D04FF488
:1055C0000063384A53640223C2F8F433A2F5E03290
:1055D000936666B1344BDB6C180701D4FFF7C2FB4E
:1055E000FFF748FF0420FEF747FBFFF761FB284B5E
:1055F0005A69D10746D5DA6812F0706FFBD12B4B90
:105600002B4A5A642B4A936F23F0F003936715B12A
:105610002046FFF75FFF284BD3F84C315A1C01D0CE
:105620005B0002D50122214B5A615CB31E4BDA6E3E
:1056300003F500539A6603F5D0331B6A1B4A23F027
:105640000103D3611D4BD96803F50053996003F53D
:105650000053D3F8841003F5005399674FF03A4391
:10566000D3F8181103F50053C3F81411144BD96C77
:1056700003F500539964134903F5803359664FF6D7
:1056800008435364BDE8F88F4FF0000957E700BFA7
:10569000000002B800C001B800000101003000B0F5
:1056A000DF0000FF001002B8004000B8002002B880
:1056B00010003000003F00B00080E00F004001B853
:1056C00000C000B85000002FA64B2DE9F04F9A6E95
:1056D000DB6E87B002EA0308A34BC3F868804FF083
:1056E0003A43D3F81461D3F818311E409F4BC3F8E6
:1056F00014619F4B9A68DB6802EA030A9D4BC3F86A
:1057000008A003F52043DA691B6A02EA03099A4BF1
:105710009A4A09EA0303D361994BD3F80422D706C6
:1057200006D4D3F80431DD06C3F3001740F1F58049
:1057300003F066FA934B5A695F6E12F0060F14BFBE
:10574000012200221B6F01921F408F4A27F0007335
:1057500023F400637C07536606D58C4A92F8C9305F
:105760000133DBB282F8C93003F04EFAB8F1000F12
:1057700000F0F48018F0020400F0EE80844B002565
:10578000D3F8F4B303F500530BF00702CBF3800416
:105790001BF0020FC3F8F4234FEA44542BD003F05C
:1057A0002FFA0290FFF79EFA0346764A106A116AB2
:1057B0008842FCD0106A8142FCD00393FFF792FA32
:1057C000039B704A984240F0AA80029803F01CFAAA
:1057D000704A039B13606E4A526C12F4E05140F021
:1057E000A08023F07F4323F0DF030BB9FFF7C2FD56
:1057F0004FF080731C431BF0010F13D0644B5F49C3
:105800005B6C03F460424A64002A00F09F801A0433
:1058100000F19F8013F4005F0CBF4FF000534FF076
:1058200000631C43C8F340384FEA48085A4B3340E2
:10583000002B4BD016F4206F0AD040F60F02062141
:10584000002000F091FE0020FFF744FE26F48026A1
:10585000F00506D5FF22494B44F4C0649A60FFF777
:1058600081FA16F0090F0BD040F62402082100201F
:1058700000F07AFEFFF7FEFD4FF03A4301225A6333
:1058800016F0106F0CD040F62D020921002000F018
:105890006BFEFFF7EFFD002211461046FDF76EFC90
:1058A00016F4202F0AD040F635020721002000F020
:1058B0005BFE0020FFF70EFE26F48026F10301D5E3
:1058C000FDF7C8FD002EB8BF48F0080872070ED5D6
:1058D0004FF03A431B6B13F4005F4FF4005317BFB4
:1058E000224A2E4A136344F4000408BF136373056D
:1058F00048BF44F0040416F4802B00F0B580FDF797
:1059000067FD013806284BD8DFE810F0300133017D
:105910003001360139013C013C01019726E703467D
:1059200044E7CDE90221FFF725FD0399134B029AC5
:105930005964D10407D412F4806F0CBF4FF0805328
:105940004FF0806356E74FF0804353E74FF000730A
:1059500067E74FF0004364E7254663E74446454662
:1059600064E700BF004000B8006000B8002000BA43
:10597000004001B8006001B80000F7FF002002B845
:1059800000E100E000C001B800E001B8003E00B056
:10599000000002B8880E0020090B0B89001000BA25
:1059A00040F666020321002000F0DEFD4FF03A428F
:1059B0000121D2F88C30D2F8AC0003F00703063393
:1059C00001FA03F3C0F30C001B1A9BB2072B12D988
:1059D000764B5B6C58020ED47548D36CD26E406D1A
:1059E00058B103F0070306339940C2F30C03C91AF8
:1059F00089B2072901D844F400746E4B1B78002B40
:105A000032D04FF03A43D3F8143113F4A02F2BD1F6
:105A1000694B6A4A1B7893B9FB0410D4137873B1AD
:105A2000E308674943EA457383F00103D1F8FC1E9C
:105A300003F001035B0021FA03F3980714D104205B
:105A4000FEF71AF95F4B60495967FFF79FF95B4A08
:105A500013782BB95D4B5E4A1B682340134201D17A
:105A600044F4804427F48057BAF1000F1DD01AF493
:105A7000805F18BF44F480241AF4807F18BF44F478
:105A800000241AF4005F18BF44F010041AF4007FD9
:105A900018BF44F020041AF4806F18BF44F040048B
:105AA0001AF4006F18BF44F08004B9F1000F3FD022
:105AB00019F4802F18BF45F4007519F4803F18BF02
:105AC00044F4805419F4801F18BF44F4003419F4CE
:105AD000800F18BF44F0020419F4003F18BF44F4CB
